:020000040800F2
:10000000600700202902000825290008C5270008EC
:100010002129000821040008F52F00080000000035
:100020000000000000000000000000009929000806
:10003000650400080000000095290008F129000867
:10004000430200084302000843020008430200087C
:10005000430200084302000843020008430200086C
:10006000430200084302000843020008430200085C
:10007000430200084302000843020008430200084C
:100080004302000843020008430200085504000828
:100090002504000835040008450400084302000850
:1000A000430200084302000843020008430200081C
:1000B000430200084302000843020008430200080C
:1000C00043020008430200084302000843020008FC
:1000D00043020008430200084302000843020008EC
:1000E00043020008430200084302000843020008DC
:1000F00043020008430200084302000843020008CC
:100100004302000843020008C92A0008430200080D
:1001100043020008430200084302000843020008AB
:10012000430200084302000843020008430200089B
:10013000430200084302000843020008430200088B
:10014000430200084302000843020008430200087B
:10015000430200084302000843020008430200086B
:10016000430200084302000843020008430200085B
:100170004302000843020008430200080000000098
:10018000430200084302000800F002F800F03CF8C7
:100190000AA090E8000C82448344AAF10107DA45E2
:1001A00001D100F031F8AFF2090EBAE80F0013F0F8
:1001B000010F18BFFB1A43F001031847782F000006
:1001C000982F0000103A24BF78C878C1FAD8520797
:1001D00024BF30C830C144BF04680C6070470000C1
:1001E0000023002400250026103A28BF78C1FBD840
:1001F000520728BF30C148BF0B6070471FB502F0DF
:1002000083FF1FBD10B510BD00F0D0F81146FFF7F9
:10021000F5FF02F051FF00F0EEF803B4FFF7F2FF34
:1002200003BC00F0F5F80000094880470948004782
:10023000FEE7FEE7FEE7FEE7FEE7FEE7FEE7FEE796
:10024000FEE7FEE704480549054A064B70470000F3
:10025000B52A00088901000860010020600700201D
:10026000600300206003002053EA020C00F0698064
:100270002DE9F04B4FF00006002B1FBFB3FA83F5BA
:1002800003FA05F424FA05F65E4012BF1643B2FAEB
:1002900082F502FA05F4C5F120051EBF22FA05FC1D
:1002A00044EA0C04203556EA044C4FEA144418BFC3
:1002B000641C4FF000084FF00009904271EB030CF2
:1002C00039D3002919BFB1FA81F701FA07F6B0FA5C
:1002D00080F700FA07F6C7F120071EBF20FA07FCD7
:1002E00046EA0C062037B6FBF4FCA7EB0507103FE7
:1002F00007F01F0BCBF120062CFA06F60CFA0BFBCD
:1003000044BFB3460026202FA4BF5E464FF0000B2B
:100310005BEA060C08BF4FF0010B19EB0B0948EB29
:100320000608ABFB027C06FB02CC0BFB03CCC01B1C
:1003300071EB0C01C1E70B46024641464846BDE859
:10034000F08B13B5084318BF4FF0FF300146AFF3F1
:100350000080BDE81C4070474FF0000200B5134616
:1003600094469646203922BFA0E80C50A0E80C50D5
:10037000B1F12001BFF4F7AF090728BFA0E80C5086
:1003800048BF0CC05DF804EB890028BF40F8042B7F
:1003900008BF704748BF20F8022B11F0804F18BFEC
:1003A00000F8012B7047704770477047754600F0A2
:1003B0002BF8AE4605006946534620F007008546F7
:1003C00018B020B5FFF73EFFBDE820404FF0000613
:1003D0004FF000074FF000084FF0000BAC46ACE8C0
:1003E000C009ACE8C009ACE8C009ACE8C00921F01C
:1003F00007018D46704710B50446AFF300802046D4
:10040000BDE81040FFF709BF0048704758000020C2
:1004100001491820ABBEFEE726000200704700002D
:10042000FFE7FEE780B540F2BC00C2F2000000F03A
:10043000D3FA80BD80B540F2BC00C2F2000000F0EB
:10044000CBFA80BD80B540F2BC00C2F2000000F0E3
:10045000C3FA80BD80B540F2BC00C2F2000000F0DB
:10046000BBFA80BD7047000072B6FFE7FEE70000F0
:1004700084B002900191029890F820008DF803005A
:100480009DF80300012805D0FFE79DF8030002282E
:100490000AD1FFE7019A0298016848691043486150
:1004A00000208DF80F0008E00299486A40F480208F
:1004B000486201208DF80F00FFE79DF80F0004B09F
:1004C0007047000088B00690059104920393069847
:1004D00090F820008DF8070006980068806800906A
:1004E0000598806808B9FFE700E0FFE79DF807007E
:1004F000012806D0FFE79DF80700022840F0808021
:10050000FFE79DF80300400700280CD4FFE79DF8A3
:1005100003000007002806D4FFE79DF80300C0068B
:10052000002864D5FFE70098C0F3016002900299AB
:1005300001208840039908600598806868B9FFE742
:1005400005980168C06840EA415006990968029A16
:1005500001EB0211C1F880010EE005994A68886834
:10056000C96840EAC200084306990968029A01EB8B
:100570000211C1F88001FFE7059800690699096832
:10058000029A01EB0211C1F884010598007D01284F
:100590000CD1FFE706980068029900EB0111D1F831
:1005A000840140F48070C1F88401FFE7049840683A
:1005B00006990968029A01EB0211C1F88C010498AE
:1005C000006806990968029A01EB0211C1F88801D6
:1005D00006980068029900EB0111D1F8800140F003
:1005E0000100C1F8800100208DF81F0011E006997C
:1005F000486A40F40010486201208DF81F0008E0AE
:100600000699486A40F48020486201208DF81F0056
:10061000FFE79DF81F0008B07047000086B0049007
:100620000391049890F820008DF803009DF80300D2
:10063000012806D0FFE79DF80300022840F0B080B3
:10064000FFE746F20040C4F2000001900199D1F8A2
:10065000000240F00100C1F800020199D1F8000247
:1006600020F47C50C1F800020398426A0199D1F845
:10067000000240EA0220C1F800020398406900F03D
:100680001F01012088400290029A0199D1F81C02B2
:100690009043C1F81C020398C069F0B9FFE7029AC1
:1006A0000199D1F80C029043C1F80C02039A90888A
:1006B000D168526940EA0140019901EBC201C1F8D9
:1006C0004002039A10889168526940EA01400199FA
:1006D00001EBC201C1F84402FFE70398C069012899
:1006E0001ED1FFE7029A0199D1F80C021043C1F81C
:1006F0000C02039A90881168526940EA01400199FE
:1007000001EBC201C1F84002039A908991685269D5
:1007100040EA0140019901EBC201C1F84402FFE740
:100720000398806940B9FFE7029A0199D1F8040261
:100730009043C1F8040207E0029A0199D1F804023B
:100740001043C1F80402FFE70398006940B9FFE7CE
:10075000029A0199D1F814029043C1F8140207E0FB
:10076000029A0199D1F814021043C1F81402FFE76C
:100770000398006A012808D1FFE7029A0199D1F88D
:100780001C021043C1F81C02FFE70199D1F80002D6
:1007900020F00100C1F8000200208DF8170008E0E9
:1007A0000499486A40F48020486201208DF81700BF
:1007B000FFE79DF8170006B07047000081B0009079
:1007C00001B0704786B0049003910292019304989F
:1007D00090F820008DF803009DF80300012806D052
:1007E000FFE79DF80300022840F0E880FFE7039848
:1007F00080B9FFE704980068C068800748B9FFE740
:100800000499486A40F40010486201208DF81700EE
:10081000DDE00FE0049800680069800748B9FFE751
:100820000499486A40F40010486201208DF81700CE
:10083000CDE0FFE704980068039900EB0110D0F8C1
:10084000B00100F00400029988600298806858B9ED
:10085000FFE704980068039900EB0110D0F8B0019D
:10086000400D029908600AE004980068039900EBC3
:100870000110D0F8B001C00802994860FFE7049861
:100880000068039900EB0110D0F8B00100F00200FD
:100890000299C86004980068039900EB0110D0F831
:1008A000B40100F00F00082804D3FFE702990820E4
:1008B00008610BE004980068039900EB0110D0F880
:1008C000B40100F00F0002990861FFE70498006886
:1008D000039900EB0110D0F8B40180B2000A02992C
:1008E000886104980068039900EB0110D0F8B40106
:1008F000000C0299486104980068039900EB01100C
:10090000D0F8B8010199087004980068039900EBC9
:100910000110D0F8B801000A0199487004980068E5
:10092000039900EB0110D0F8B801000C0199887010
:1009300004980068039900EB0110D0F8B801000E8C
:100940000199C87004980068039900EB0110D0F871
:10095000BC010199087104980068039900EB01102B
:10096000D0F8BC01000A0199487104980068039905
:1009700000EB0110D0F8BC01000C019988710498BB
:100980000068039900EB0110D0F8BC01000E01993A
:10099000C871039838B9FFE704980168C86840F047
:1009A0002000C86006E004980168086940F0200053
:1009B0000861FFE700208DF8170008E00499486AF5
:1009C00040F48020486201208DF81700FFE79DF871
:1009D000170006B07047000080B58AB0099000206B
:1009E0000890099800684069079009980068406875
:1009F0000690099800688068059009980068C068AA
:100A0000049009980068006903900998006880695B
:100A100002909DF81C00C007002800F09480FFE7BA
:100A20009DF81400C00758B3FFE70998016801203A
:100A300088609DF814008007002804D5FFE7099816
:100A400000F0A2FB1BE09DF814004007002805D52C
:100A5000FFE7089840F4006008900FE09DF814004C
:100A60000007002805D5FFE7089840F4805008905B
:100A700003E0099800F084FBFFE7FFE7FFE7FFE7EB
:100A80009DF81500C00760B3FFE7099801684FF4AF
:100A9000807088609DF815008007002804D5FFE766
:100AA000099800F079FB1BE09DF81500400700282D
:100AB00005D5FFE7089840F4005008900FE09DF836
:100AC00015000007002805D5FFE7089840F480408E
:100AD000089003E0099800F05BFBFFE7FFE7FFE702
:100AE000FFE79DF81600C00760B3FFE709980168AB
:100AF0004FF4803088609DF816008007002804D5E8
:100B0000FFE7099800F050FB1BE09DF81600400736
:100B1000002805D5FFE7089840F4004008900FE052
:100B20009DF816000007002805D5FFE7089840F457
:100B30008030089003E0099800F032FBFFE7FFE700
:100B4000FFE7FFE7FFE79DF81C000007002810D52E
:100B5000FFE79DF81000C006002809D5FFE70898B8
:100B600040F400700890099801681020C860FFE701
:100B7000FFE79DF81C00400700280FD5FFE79DF810
:100B800010000007002808D5FFE709980168082031
:100B9000C860099800F076FAFFE7FFE79DF81C00AF
:100BA000800700280BD5FFE709980068C068800718
:100BB00020B1FFE7099800F069FAFFE7FFE79DF829
:100BC0001C004006002810D5FFE79DF80C00C00669
:100BD000002809D5FFE7089840F48060089009983C
:100BE000016810200861FFE7FFE79DF81C00800600
:100BF00000280FD5FFE79DF80C000007002808D556
:100C0000FFE70998016808200861099800F066FA72
:100C1000FFE7FFE79DF81C00C00600280BD5FFE7A3
:100C2000099800680069800720B1FFE7099800F083
:100C300059FAFFE7FFE79DF81E00800700280FD54F
:100C4000FFE79DF81800C006002808D5FFE70998BF
:100C5000016810204860099800F048FAFFE7FFE7B4
:100C60009DF81E00C00778B1FFE79DF81800000747
:100C7000002808D5FFE7099801680820486009980E
:100C800000F096FAFFE7FFE79DF81D000006002838
:100C900040F18D80FFE79DF818004007002840F1E3
:100CA0008180FFE79DF81D00C00750B1FFE79DF868
:100CB0000800C00728B1FFE7089840F0010008903D
:100CC000FFE79DF81D00800700280BD5FFE79DF882
:100CD00008008007002805D5FFE7089840F00200CB
:100CE0000890FFE79DF81D00400700280BD5FFE79F
:100CF0009DF808004007002805D5FFE7089840F058
:100D000004000890FFE79DF81D000007002848D563
:100D1000FFE79DF8080010F0700F42D0FFE702983F
:100D200000F0700001460191102814D0FFE70198EF
:100D3000202815D0FFE70198302816D0FFE701984A
:100D4000402817D0FFE70198502818D0FFE70198F6
:100D5000602819D01DE0089840F00800089019E0BC
:100D6000089840F01000089014E0089840F0200027
:100D700008900FE0089840F0400008900AE00898BA
:100D800040F08000089005E0089840F480700890DA
:100D900000E0FFE709980168886920F07000886129
:100DA000FFE7FFE70998016804204860FFE708981B
:100DB00048B1FFE7089A0999486A104348620998C0
:100DC000FFF7FCFCFFE70AB080BD000080B584B0EF
:100DD0000290029820B9FFE701208DF80F00E0E0B3
:100DE000029890F8200020B9FFE7029800F0DEF8A2
:100DF000FFE702980168086840F00100086000F011
:100E0000B7FB0190FFE7029800684068C007A8B9E7
:100E1000FFE700F0ADFB0199401A0B280DD3FFE767
:100E20000299486A40F4003048620299052081F82E
:100E3000200001208DF80F00B3E0E4E7029801687C
:100E4000086820F00200086000F092FB0190FFE7C4
:100E50000298006840688007002815D5FFE700F079
:100E600087FB0199401A0B280DD3FFE70299486AC6
:100E700040F4003048620299052081F820000120EA
:100E80008DF80F008DE0E3E70298007E012807D17E
:100E9000FFE702980168086840F08000086006E0FB
:100EA00002980168086820F080000860FFE7029857
:100EB000407E012807D1FFE702980168086840F0EA
:100EC0004000086006E002980168086820F04000D1
:100ED0000860FFE70298807E012807D1FFE70298AB
:100EE0000168086840F02000086006E00298016888
:100EF000086820F020000860FFE70298C07E012803
:100F000007D1FFE702980168086820F01000086028
:100F100006E002980168086840F010000860FFE7EA
:100F20000298007F012807D1FFE70298016808684E
:100F300040F00800086006E002980168086820F0A8
:100F400008000860FFE70298407F012807D1FFE70B
:100F500002980168086840F00400086006E0029802
:100F60000168086820F004000860FFE7029B196828
:100F70005A689868D3F80CC040EA0C00D3F810C047
:100F800040EA0C005B691843013A1043C8610299BA
:100F900000204862029A012182F820108DF80F008B
:100FA000FFE79DF80F0004B080BD000080B58EB053
:100FB0000D9000200C900B900A90099008900D98CD
:100FC000006846F20041C4F20001884258D1FFE7B0
:100FD000FFE70020079043F64000C4F202000168DA
:100FE00041F000710160006800F000700790079800
:100FF000FFE7FFE70020069043F63000C4F202004E
:10100000016841F008010160006800F008000690E6
:101010000698FFE70320089002210991002104911E
:101020000A910B9009200C9040F60040C4F2020097
:1010300008A900F0C1F8049A13200190114600F0AD
:101040002FFB019800F022FB049A14200290114615
:1010500000F026FB029800F019FB049A152003907B
:10106000114600F01DFB039800F010FB049A1620B7
:101070000590114600F014FB059800F007FBFFE710
:101080000EB080BD81B0009001B0704780B582B0D5
:1010900001900198006846F20041C4F200018842C4
:1010A00019D1FFE740F2BC00C2F2000040F2381252
:1010B000C2F20002009240F23013C2F2000300219B
:1010C000FFF780FB0098006840F20121884201D1BF
:1010D000FFE7FFE7FFE702B080BD000081B00090AE
:1010E00001B0704781B0009001B0704781B00090AE
:1010F00001B0704780B584B00290029890F820004B
:1011000001282FD1FFE70299022081F820000298E0
:101110000168086820F00100086000F029FA0190D9
:10112000FFE7029800684068C007A8B1FFE700F039
:101130001FFA0199401A0B280DD3FFE70299486A5C
:1011400040F4003048620299052081F82000012017
:101150008DF80F000FE0E4E70299002048628DF857
:101160000F0008E00299486A40F40020486201201C
:101170008DF80F00FFE79DF80F0004B080BD000060
:1011800081B0009001B0704781B0009001B070470D
:1011900081B0009001B0704781B0009001B07047FD
:1011A00081B0009001B0704781B0009001B07047ED
:1011B00081B0009001B070478EB00D900C9100206E
:1011C0000A90099008900B90FFE70B980F2800F207
:1011D000CC81FFE70B99012088400A900C980068A9
:1011E0000A990840099009980A99884240F0B88104
:1011F000FFE70C98406800F00300012807D0FFE7E4
:101200000C98406800F0030002282FD1FFE70D98EA
:10121000806808900B984100032000FA01F10898BB
:10122000884308900C98C0680B99490000FA01F1B6
:1012300008980843089008980D9988600D984068B0
:1012400008900B99012000FA01F108988843089052
:101250000C984068C0F300100B9900FA01F108984F
:101260000843089008980D994860FFE70C9840687B
:1012700000F00300032818D0FFE70D98C06808901D
:101280000B984100032000FA01F108988843089068
:101290000C9880680B99490000FA01F108980843FE
:1012A000089008980D99C860FFE70C98406800F016
:1012B0000300022826D1FFE70D980B996FF0030277
:1012C00002EA51010844006A08900B9800F00700F8
:1012D00081000F2000FA01F10898884308900C98CB
:1012E00000690B9901F00701890000FA01F10898E3
:1012F0000843089008980D990B9B02EA5302114489
:101300000862FFE70D98006808900B9841000320E1
:1013100000FA01F10898884308900C98406800F0A2
:1013200003000B99490000FA01F10898084308905E
:1013300008980D9908600C9880798007002800F0C3
:101340000E81FFE7FFE70020079043F64400C4F258
:101350000200016841F480410160006800F48040AF
:1013600007900798FFE70B9820F0030043F6080169
:10137000C4F20101405808900B9800F0030081006E
:101380000F2000FA01F10898884308900D98002179
:10139000C4F20201884203D1FFE7002006905EE01C
:1013A0000D9840F20041C4F20201884203D1FFE7E8
:1013B0000120059050E00D9840F60001C4F20201B2
:1013C000884203D1FFE70220049042E00D9840F6E6
:1013D0000041C4F20201884203D1FFE703200390D9
:1013E00034E00D9841F20001C4F20201884203D1B9
:1013F000FFE70420029026E00D9841F20041C4F27C
:101400000201884203D1FFE70520019018E00D9802
:1014100041F60001C4F20201884203D1FFE7062031
:1014200000900AE00D9941F60042C4F20202082041
:10143000914208BF07200090FFE700980190FFE766
:1014400001980290FFE702980390FFE70398049049
:10145000FFE704980590FFE705980690FFE70698D8
:10146000C0B20B9901F00301890000FA01F108985C
:101470000843089008980B9921F0030143F60802ED
:10148000C4F20102885043F60840C4F2010000682B
:10149000089009990898884308900C988079C006AC
:1014A000002805D5FFE70999089808430890FFE749
:1014B000089843F60841C4F20101086043F60C4065
:1014C000C4F20100006808900999089888430890C0
:1014D0000C9880798006002805D5FFE709990898BF
:1014E00008430890FFE7089843F60C41C4F2010155
:1014F000086043F60440C4F20100006808900999AE
:101500000898884308900C9880798007002805D5B2
:10151000FFE70999089808430890FFE7089843F601
:101520000441C4F20101086043F60040C4F2010026
:101530000068089009990898884308900C98807969
:10154000C00728B1FFE70999089808430890FFE70A
:10155000089843F60041C4F201010860FFE7FFE785
:10156000FFE70B9801300B902FE60EB0704700009C
:1015700040F25810C2F200000068704740F24C0080
:10158000C2F20000027840F25811C2F2000108686D
:10159000104408607047000080B543F60041C4F273
:1015A0000201086840F400700860086840F4806038
:1015B0000860086840F480700860032000F08AF832
:1015C0000F2000F005F800F03BF8002080BD00007F
:1015D00080B582B0009040F20000C2F200000068C6
:1015E00040F24C01C2F200010A784FF47A71B1FB6B
:1015F000F2F1B0FBF1F000F07BFD20B1FFE701203C
:101600008DF8070018E000980F280DD8FFE7009923
:101610004FF0FF30002200F043F8009840F25001F4
:10162000C2F20001086003E001208DF8070003E02A
:1016300000208DF80700FFE79DF8070002B080BD8D
:1016400082B0FFE70020019043F64400C4F202009C
:10165000016841F480410160006800F4804001901D
:101660000198FFE7FFE70020009043F64000C4F236
:101670000200016841F080510160006800F0805074
:1016800000900098FFE702B07047000080B582B07C
:101690008DF807009DF9070001F0AEFC02B080BD97
:1016A00080B586B08DF81700049103920020029057
:1016B00001F0BAFC02909DF917000190029804997C
:1016C000039A01F031F90146019801F0B5FC06B02A
:1016D00080BD000080B582B00190019801F0CEFC81
:1016E00002B080BD80B584B002900191029820B90B
:1016F000FFE701208DF80F0021E1019843F600413A
:10170000C4F20201096801F00701884212D9FFE71B
:10171000019943F60040C4F202000170006800F035
:1017200007000199884204D0FFE701208DF80F00DF
:1017300005E1FFE702980078800700282AD5FFE737
:10174000029800784007002809D5FFE743F6080112
:10175000C4F20201086840F4E0500860FFE7029814
:1017600000780007002809D5FFE743F60801C4F216
:101770000201086840F460400860FFE743F6080192
:10178000C4F20201086820F0F000029A9268104347
:101790000860FFE702980078C00700286ED0FFE7D6
:1017A00002984068012811D1FFE743F60000C4F217
:1017B0000200006800F400310020B0EB514F04D16A
:1017C000FFE701208DF80F00B9E02CE00298406897
:1017D000022805D0FFE702984068032811D1FFE7EF
:1017E00043F60000C4F20200006800F0007100201F
:1017F000B0EB516F04D1FFE701208DF80F009EE0A0
:1018000010E043F60000C4F20200006800F002019C
:101810000020B0EB510F04D1FFE701208DF80F003D
:101820008DE0FFE7FFE743F60801C4F20201086814
:1018300020F00300029A526810430860FFF798FEF8
:101840000090FFE743F60800C4F20200006800F0D1
:101850000C0002994968B0EB810F0ED0FFE7FFF74B
:1018600087FE0099401A41F28931884204D3FFE78C
:1018700003208DF80F0062E0E4E7FFE7019843F6EC
:101880000041C4F20201096801F00701884212D246
:10189000FFE7019943F60040C4F2020001700068BE
:1018A00000F007000199884204D0FFE701208DF87D
:1018B0000F0044E0FFE702980078400700280CD5AD
:1018C000FFE743F60801C4F20201086820F4E05083
:1018D000029AD26810430860FFE702980078000778
:1018E00000280DD5FFE743F60801C4F2020108689D
:1018F00020F46040029A126940EAC2000860FFE7E3
:1019000000F022F843F60801C4F202010968C9B2E6
:101910000A0943F22211C0F60001895CC84040F276
:101920000001C2F20001086040F25000C2F2000063
:101930000068FFF74DFE00208DF80F00FFE79DF8CF
:101940000F0004B080BD000080B586B00020059077
:1019500004900390029043F60800C4F2020000686D
:1019600000F00C000146019140B1FFE70198042806
:101970000AD0FFE7019808280CD04FE042F200405F
:10198000C0F2F40002904FE041F60030C0F2B70020
:10199000029049E043F60400C4F20200016801F03D
:1019A0003F01059100684002002813D5FFE743F688
:1019B0000400C4F202000068C0F3881041F6003150
:1019C000C0F2B701A0FB0101059A0023FEF74CFC11
:1019D000049012E043F60400C4F202000068C0F371
:1019E000881042F20041C0F2F401A0FB0101059A07
:1019F0000023FEF739FC0490FFE743F60400C4F22D
:101A00000200006800F44031022000EBD130039066
:101A100004980399B0FBF1F0029005E042F2004017
:101A2000C0F2F4000290FFE7029806B080BD00000B
:101A300080B586B00490049820B9FFE701208DF8A6
:101A4000170050E304980078C007002800F0A58034
:101A5000FFE743F60800C4F20200006800F00C0043
:101A6000042813D0FFE743F60800C4F20200006820
:101A700000F00C0008281ED1FFE743F60400C4F272
:101A8000020000684002002815D5FFE743F6000079
:101A9000C4F20200006800F400310020B0EB514FA6
:101AA00008D0FFE70498406820B9FFE701208DF8CF
:101AB000170018E370E0FFE704984068B0F5803F36
:101AC00009D1FFE743F60001C4F20201086840F4BF
:101AD0008030086020E004984068B0F5A02F0DD158
:101AE000FFE743F60001C4F20201086840F48020D9
:101AF0000860086840F4803008600CE043F600019C
:101B0000C4F20201086820F480300860086820F4FC
:101B100080200860FFE7FFE7FFE704984068E8B12E
:101B2000FFE7FFF725FD0390FFE743F60000C4F24F
:101B30000200006800F400310020B0EB514F0CD1DE
:101B4000FFE7FFF715FD0399401A652804D3FFE767
:101B500003208DF81700C6E2E7E71CE0FFF708FD59
:101B60000390FFE743F60000C4F20200006800F4AF
:101B700000310020B0EB514F0CD0FFE7FFF7F8FC2D
:101B80000399401A652804D3FFE703208DF8170056
:101B9000A9E2E7E7FFE7FFE7FFE70498007880079F
:101BA000002840F19680FFE743F60800C4F20200E7
:101BB000006810F00C0F13D0FFE743F60800C4F2E2
:101BC0000200006800F00C0008282CD1FFE743F663
:101BD0000400C4F2020000684002002823D4FFE79A
:101BE00043F60000C4F20200006800F00201002089
:101BF000B0EB510F09D0FFE70498C068012804D06A
:101C0000FFE701208DF817006DE243F60001C4F2F2
:101C10000201086820F0F800049A126940EAC20044
:101C20000860FFE754E00498C06870B3FFE7002144
:101C3000C4F2472101200860FFF79AFC0390FFE7F8
:101C400043F60000C4F20200006800F00201002028
:101C5000B0EB510F0CD1FFE7FFF78AFC0399401A54
:101C6000032804D3FFE703208DF817003BE2E7E7E2
:101C700043F60001C4F20201086820F0F800049A5B
:101C8000126940EAC200086021E00021C4F2472145
:101C900000200860FFF76CFC0390FFE743F60000AC
:101CA000C4F20200006800F002010020B0EB510F06
:101CB0000CD0FFE7FFF75CFC0399401A032804D31C
:101CC000FFE703208DF817000DE2E7E7FFE7FFE7E6
:101CD000FFE704980078000700284BD5FFE7049839
:101CE000406918B3FFE740F68061C4F24721012044
:101CF0000860FFF73DFC0390FFE743F67400C4F271
:101D00000200006800F002010020B0EB510F0CD17E
:101D1000FFE7FFF72DFC0399401A032804D3FFE7E0
:101D200003208DF81700DEE1E7E722E040F680614E
:101D3000C4F2472100200860FFF71AFC0390FFE778
:101D400043F67400C4F20200006800F002010020B3
:101D5000B0EB510F0CD0FFE7FFF70AFC0399401AD4
:101D6000032804D3FFE703208DF81700BBE1E7E762
:101D7000FFE7FFE7049800784007002840F1CE8095
:101D8000FFE700208DF8070043F64000C4F2020090
:101D90000068C000002815D4FFE7FFE7002000908E
:101DA00043F64000C4F20200016841F08051016036
:101DB000006800F0805000900098FFE701208DF847
:101DC0000700FFE747F20000C4F200000068C0050A
:101DD000002822D4FFE747F20001C4F2000108689E
:101DE00040F480700860FFF7C3FB0390FFE747F201
:101DF0000000C4F200000068C00500280CD4FFE712
:101E0000FFF7B6FB0399401A032804D3FFE703202A
:101E10008DF8170067E1EAE7FFE7FFE704988068BD
:101E2000012809D1FFE743F67001C4F202010868F6
:101E300040F0010008601FE00498806805280DD17B
:101E4000FFE743F67001C4F20201086840F00400A5
:101E50000860086840F0010008600CE043F670017B
:101E6000C4F20201086820F001000860086820F050
:101E700004000860FFE7FFE7FFE704988068F8B117
:101E8000FFE7FFF775FB0390FFE743F67000C4F22E
:101E90000200006800F002010020B0EB510F0ED1EB
:101EA000FFE7FFF765FB0399401A41F28931884249
:101EB00004D3FFE703208DF8170014E1E5E71EE0E7
:101EC000FFF756FB0390FFE743F67000C4F20200F1
:101ED000006800F002010020B0EB510F0ED0FFE7C8
:101EE000FFF746FB0399401A41F28931884204D337
:101EF000FFE703208DF81700F5E0E5E7FFE79DF821
:101F00000700012809D1FFE743F64001C4F20201AE
:101F1000086820F080500860FFE7FFE704988069B8
:101F2000002800F0DC80FFE743F60800C4F202005E
:101F3000006800F00C00082800F08580FFE7049896
:101F4000806902285CD1FFE76021C4F247210020AC
:101F50000860FFF70DFB0390FFE743F60000C4F2B3
:101F60000200006800F000710020B0EB516F0CD04F
:101F7000FFE7FFF7FDFA0399401A032804D3FFE7B0
:101F800003208DF81700AEE0E7E70499C869D1F89F
:101F900020C04B6A8A6A40EA0C0040EA8310D203F0
:101FA0004FF6FF739A43A2F580321043C96A40EAA4
:101FB000016043F60401C4F2020108606021C4F22A
:101FC000472101200860FFF7D3FA0390FFE743F6AB
:101FD0000000C4F20200006800F000710020B0EBC5
:101FE000516F0CD1FFE7FFF7C3FA0399401A03289A
:101FF00004D3FFE703208DF8170074E0E7E721E042
:102000006021C4F2472100200860FFF7B1FA039075
:10201000FFE743F60000C4F20200006800F0007120
:102020000020B0EB516F0CD0FFE7FFF7A1FA039946
:10203000401A032804D3FFE703208DF8170052E06D
:10204000E7E7FFE74AE004988069012804D1FFE749
:1020500001208DF8170046E043F60400C4F20200A8
:102060000068029004988069012831D0FFE7029847
:1020700000F480000499C969884229D1FFE70298D9
:1020800000F03F000499096A884221D1FFE70298D5
:1020900047F6C07108400499496AB0EB811F17D117
:1020A000FFE7029800F440300499896AC9034FF6AB
:1020B000FF729143A1F58031884209D1FFE7029870
:1020C00000F070600499C96AB0EB016F04D0FFE7BB
:1020D00001208DF8170006E0FFE7FFE7FFE700208B
:1020E0008DF81700FFE79DF8170006B080BD0000CF
:1020F00080B582B00190019800F050FC02B080BD24
:1021000081B0009001B0704781B0009001B070477D
:1021100085B003900291FFE7039890F83C000128F6
:1021200004D1FFE702208DF813007EE0039901201F
:1021300081F83C00FFE7FFE70399022081F83D00AA
:1021400003980068406801900398006880680090D8
:10215000019820F0700001900298016801980843EE
:10216000019001980399096848600398006800216C
:10217000C4F2010188423CD0FFE703980068B0F147
:10218000804F36D0FFE70398006840F20041C4F268
:10219000000188422DD0FFE70398006840F6000157
:1021A000C4F20001884224D0FFE70398006840F69B
:1021B0000041C4F2000188421BD0FFE70398006889
:1021C00040F20041C4F20101884212D0FFE70398B7
:1021D000006844F20001C4F20101884209D0FFE71F
:1021E0000398006841F60001C4F2000188420ED154
:1021F000FFE7009820F08000009002984168009866
:10220000084300900098039909688860FFE70399E4
:10221000012081F83D00FFE70399002081F83C0090
:10222000FFE700208DF81300FFE79DF8130005B0CD
:102230007047000083B00190019890F83D0001289C
:1022400004D0FFE701208DF80B006AE0019902201D
:1022500081F83D0001980168C86840F00100C8603D
:10226000019800680021C4F2010188423CD0FFE7D8
:1022700001980068B0F1804F36D0FFE70198006800
:1022800040F20041C4F2000188422DD0FFE70198DE
:10229000006840F60001C4F20001884224D0FFE744
:1022A0000198006840F60041C4F2000188421BD04A
:1022B000FFE70198006840F20041C4F20101884242
:1022C00012D0FFE70198006844F20001C4F2010156
:1022D000884209D0FFE70198006841F60001C4F286
:1022E0000001884212D1FFE701980068806800F081
:1022F000070000900098062807D0FFE701980168C2
:10230000086840F001000860FFE706E001980168F6
:10231000086840F001000860FFE700208DF80B001E
:10232000FFE79DF80B0003B07047000081B00090FC
:1023300001B0704780B584B0039003980068C0680E
:10234000029003980068006901909DF804008007DE
:10235000002824D5FFE79DF80800800700281DD538
:10236000FFE7039801686FF00200086103990120FC
:102370000877039800688069800720B1FFE7039819
:10238000FFF7D4FF06E0039800F06AF9039800F025
:10239000E3F9FFE7039900200877FFE7FFE79DF8DF
:1023A00004004007002825D5FFE79DF808004007F6
:1023B00000281ED5FFE7039801686FF0040008614C
:1023C00003990220087703980068806910F4407F21
:1023D00004D0FFE70398FFF7A9FF06E0039800F099
:1023E0003FF9039800F0B8F9FFE703990020087758
:1023F000FFE7FFE79DF804000007002824D5FFE76A
:102400009DF80800000700281DD5FFE70398016824
:102410006FF00800086103990420087703980068AA
:10242000C069800720B1FFE70398FFF77FFF06E050
:10243000039800F015F9039800F08EF9FFE703996F
:1024400000200877FFE7FFE79DF80400C00600289A
:1024500025D5FFE79DF80800C00600281ED5FFE738
:10246000039801686FF0100008610399082008774D
:1024700003980068C06910F4407F04D0FFE7039818
:10248000FFF754FF06E0039800F0EAF8039800F025
:1024900063F9FFE7039900200877FFE7FFE79DF85E
:1024A0000400C00778B1FFE79DF80800C00748B1F5
:1024B000FFE7039801686FF001000861039800F0DE
:1024C0004FF9FFE7FFE79DF804000006002810D54C
:1024D000FFE79DF808000006002809D5FFE70398EC
:1024E00001686FF0800008610398FFF709FEFFE7BD
:1024F000FFE79DF804004006002810D5FFE79DF88F
:1025000008004006002809D5FFE7039801686FF02E
:1025100040000861039800F051F9FFE7FFE79DF8DC
:1025200004008006002810D5FFE79DF8080080060B
:10253000002809D5FFE7039801686FF020000861C3
:102540000398FFF7E1FDFFE7FFE704B080BD00005F
:1025500080B588B007900020069005900490039005
:1025600002900798006840F60041C4F200018842DA
:1025700022D1FFE7FFE70020019043F63000C4F2CC
:102580000200016841F080010160006800F08000F5
:1025900001900198FFE74FF48050029002200390D1
:1025A000002104910591069041F60040C4F202001A
:1025B00002A9FEF701FEFFE708B080BD80B586B036
:1025C00004900391029200208DF80700FFE7049821
:1025D00090F83C00012804D1FFE702208DF8170095
:1025E0003AE00499012081F83C00FFE7FFE70298F8
:1025F00000900C2821D80099DFE801F0071F1F1F69
:102600000D1F1F1F131F1F1F190004980068039937
:1026100000F034FB15E004980068039900F0A4FB77
:102620000FE004980068039900F018FC09E0049892
:102630000068039900F08CFC03E001208DF807008E
:10264000FFE7FFE70499002081F83C00FFE79DF8D1
:1026500007008DF81700FFE79DF8170006B080BD52
:1026600081B0009001B0704780B582B000900098B2
:1026700020B9FFE701208DF807003FE0009890F8AF
:102680003D0040B9FFE70099002081F83C00009828
:1026900000F038F8FFE70099022081F83D0000992A
:1026A00051F8040B00F018FA0099012081F8460057
:1026B000FFE70099012081F83E00009981F83F0072
:1026C000009981F84000009981F84100FFE7FFE799
:1026D0000099012081F84200009981F84300009997
:1026E00081F84400009981F84500FFE70099012036
:1026F00081F83D0000208DF80700FFE79DF80700F6
:1027000002B080BD80B584B003900398006840F6A5
:102710000041C4F2000188421BD1FFE7FFE700201F
:10272000029043F64000C4F20200016841F0080143
:102730000160006800F0080002900298FFE7322074
:10274000019002210022FEF7ABFF0198FEF79EFFE9
:10275000FFE704B080BD000081B0009001B0704779
:1027600080B582B001900198006840F2E401C2F2A5
:1027700000010968884218D1FFE740F2BC00C2F2AC
:10278000000040F23401C2F2000140F22C02C2F219
:10279000000240F22C13C2F20003FDF793FE40F258
:1027A0005411C2F200010870FFE740F2B801C2F212
:1027B000000108680130086002B080BD81B000905F
:1027C00001B07047FFE7FEE780B582B040F2BC0081
:1027D000C2F20000009046F20041C4F20001016024
:1027E00003214160002101918160C1604FF41022FA
:1027F00002614FF400124261017641768176C17622
:1028000001774177FEF7E2FA18B1FFE7FDF72CFEFA
:10281000FFE702B080BD000083B0FFE70020029018
:1028200043F63000C4F20200016841F0010101608A
:10283000006800F0010002900298FFE7FFE7002027
:10284000019043F63000C4F20200016841F0080133
:102850000160006800F0080001900198FFE7FFE7C1
:102860000020009043F63000C4F20200016841F0FD
:1028700080010160006800F0800000900098FFE790
:1028800003B0704780B58AB000210091099108918A
:10289000079106910591049103910291019140F2F3
:1028A000E400C2F2000040F60042C4F200020260FE
:1028B000A7224260816040F2E732C260016181611B
:1028C000FFF7D2FE18B1FFE7FDF7CEFDFFE70020CE
:1028D0000890099040F2E400C2F2000008A9FFF756
:1028E00017FC18B1FFE7FDF7BFFDFFE700200190DF
:1028F00002900390059040F2E400C2F2000001A9AA
:102900000822FFF75BFE18B1FFE7FDF7ADFDFFE71B
:1029100040F2E400C2F20000FFF71AFE0AB080BDE8
:10292000FFE7FEE7FFE7FEE788B007900691059214
:10293000079800F0070004900498C0F107000528EC
:1029400003D3FFE70420019004E00498C0F10700DE
:102950000190FFE70198039004980430062803D8FB
:10296000FFE70020009003E0049803380090FFE7A1
:102970000098029006980399012202FA01F10139A8
:102980000840029B984005999A40013A114008433B
:1029900008B07047704700007047000080B582B0F3
:1029A000009000980138B0F1807F03D3FFE7012049
:1029B000019019E0009801384EF21401CEF20001A6
:1029C00008604FF0FF300F2100F036FB4EF2180187
:1029D000CEF20001002008604EF21002CEF200029A
:1029E000072111600190FFE7019802B080BD00004F
:1029F00080B5FEF7C3FD80BD80B594B008A8302136
:102A0000FDF7AAFC00200790069005900490039023
:102A1000FFE70020029043F64000C4F20200016884
:102A200041F080510160006800F0805002900298EF
:102A3000FFE7FFE70020019047F20000C4F200002A
:102A4000016841F480410160006800F48040019019
:102A50000198FFE7012008904FF480300990022090
:102A60000E904FF480010F9106211091A821119131
:102A700012900420139008A8FEF7DAFF18B1FFE7C0
:102A8000FDF7F2FCFFE70F200390022004900020E6
:102A900005904FF4A05006904FF48050079003A883
:102AA0000521FEF71FFE18B1FFE7FDF7DDFCFFE78C
:102AB00014B080BD4EF68851CEF20001086840F493
:102AC000700008607047000080B540F2E400C2F278
:102AD0000000FFF72FFC80BD83B0029001910298A7
:102AE0000068009002980021C4F20101884225D0BC
:102AF000FFE70298B0F1804F20D0FFE7029840F244
:102B00000041C4F20001884218D0FFE7029840F665
:102B10000001C4F20001884210D0FFE7029840F69D
:102B20000041C4F20001884208D0FFE7029840F259
:102B30000041C4F2010188420AD1FFE7009820F069
:102B40007000009001984168009808430090FFE7EA
:102B500002980021C4F20101884255D0FFE7029893
:102B6000B0F1804F50D0FFE7029840F20041C4F22C
:102B70000001884248D0FFE7029840F60001C4F205
:102B80000001884240D0FFE7029840F60041C4F2BD
:102B90000001884238D0FFE7029840F20041C4F2B9
:102BA0000101884230D0FFE7029844F20001C4F2EC
:102BB0000101884228D0FFE7029844F20041C4F2A4
:102BC0000101884220D0FFE7029844F60001C4F2D8
:102BD0000101884218D0FFE7029841F60001C4F2D3
:102BE0000001884210D0FFE7029841F60041C4F28C
:102BF0000001884208D0FFE7029842F20001C4F2C7
:102C0000000188420AD1FFE7009820F4407000904C
:102C10000198C168009808430090FFE7009820F0F1
:102C200080000199496908430090019880680299E1
:102C3000C862019800680299886202980021C4F273
:102C40000101884208D0FFE7029840F20041C4F237
:102C50000101884205D1FFE70198006902990863E4
:102C6000FFE70299086840F004000860029901201B
:102C7000486100980299086003B0704785B00490DD
:102C800003910498006A01900499086A20F00100F9
:102C90000862049840680090049880690290029845
:102CA00020F070000290029820F003000290039838
:102CB0000168029808430290019820F002000190F8
:102CC0000398816801980843019004980021C4F298
:102CD0000101884208D0FFE7049840F20041C4F2A5
:102CE000010188420ED1FFE7019820F00800019011
:102CF0000398C168019808430190019820F00400EE
:102D00000190FFE704980021C4F20101884208D035
:102D1000FFE7049840F20041C4F20101884213D158
:102D2000FFE7009820F480700090009820F4007075
:102D300000900398416900980843009003988169C6
:102D4000009808430090FFE70098049948600298B3
:102D5000049988610398406804994863019804992C
:102D6000086205B07047000085B004900391049894
:102D7000006A01900499086A20F010000862049823
:102D800040680090049880690290029820F4E04026
:102D90000290029820F44070029003980168029813
:102DA00040EA01200290019820F020000190039851
:102DB0008168019840EA0110019004980021C4F252
:102DC0000101884208D0FFE7049840F20041C4F2B4
:102DD000010188420FD1FFE7019820F080000190A7
:102DE0000398C168019840EA01100190019820F011
:102DF00040000190FFE704980021C4F201018842DD
:102E000008D0FFE7049840F20041C4F20101884273
:102E100015D1FFE7009820F480600090009820F41E
:102E20000060009003984169009840EA810000909A
:102E300003988169009840EA81000090FFE70098BC
:102E4000049948600298049988610398406804993D
:102E5000886301980499086205B0704785B00490B2
:102E600003910498006A01900499086A20F4807024
:102E700008620498406800900498C0690290029823
:102E800020F070000290029820F003000290039856
:102E90000168029808430290019820F400700190A4
:102EA00003988168019840EA01200190049800216C
:102EB000C4F20101884208D0FFE7049840F20041C3
:102EC000C4F2010188420FD1FFE7019820F40060AD
:102ED00001900398C168019840EA0120019001988F
:102EE00020F480600190FFE704980021C4F2010102
:102EF000884208D0FFE7049840F20041C4F2010183
:102F0000884215D1FFE7009820F480500090009887
:102F100020F40050009003984169009840EA0110A5
:102F2000009003988169009840EA01100090FFE743
:102F300000980499486002980499C8610398406811
:102F40000499C86301980499086205B070470000AD
:102F500085B0049003910498006A01900499086A6E
:102F600020F4805008620498406800900498C0697A
:102F70000290029820F4E0400290029820F4407001
:102F8000029003980168029840EA0120029001989B
:102F900020F40050019003988168019840EA0130C4
:102FA000019004980021C4F20101884208D0FFE793
:102FB000049840F20041C4F2010188420BD1FFE7BE
:102FC000009820F48040009003984169009840EAFE
:102FD00081100090FFE700980499486002980499D6
:102FE000C8610398406804990864019804990862CC
:102FF00005B07047FFE7FEE781B08DF803009DF94B
:10300000030000280ED4FFE79DF9031001F01F0212
:10301000012090404A094EF20011CEF2000141F821
:103020002200FFE701B070474EF60C50CEF20000D0
:103030000068C0F30220704782B08DF8070000914D
:103040009DF9070000280AD4FFE7009800019DF9C8
:1030500007104EF20042CEF2000288540BE00098B6
:1030600000019DF8071001F00F014EF61452CEF248
:1030700000028854FFE702B07047000083B002905E
:10308000029800F0070000904EF60C51CEF20001BD
:103090000868019001984FF6FF02104001900198D6
:1030A000009A40EA02200022C0F2FA521043019036
:1030B0000198086003B0704780B582B0002001908D
:1030C000FEF76AFAFFF798FCFFF7A6FBFFF77CFB19
:1030D000FFF7D8FB40F2BC00C2F20000009040F2C3
:1030E0000401C2F20001FDF799FA0098FEF702F818
:1030F00000980221FDF7BCF940F2E400C2F20000A2
:10310000FFF798F8FFE7FEE7F1EE100A4FF6FF71C0
:10311000C0F2C03120EA010040F04070E1EE100A38
:1031200070470000000000000000010203040607D1
:103130000809000058310008000000205800000075
:10314000C4010008B0310008580000200807000042
:10315000E0010008000000000024F400000000006E
:10316000000000000000000000000000000000005F
:10317000000000000000000001000000010000004D
:10318000000000000000000000C00000FF0100007F
:103190000000000000000000000000000800000027
:1031A000000000000100000010000000000000000E
:040000050800018965
:00000001FF
